:1000000019C033C032C031C030C02FC02EC02DC087
:100010002CC02BC02AC029C028C027C026C025C09C
:1000200024C023C0B6C074C020C074C11EC01DC08F
:100030001CC01BC011241FBECFEFD4E0DEBFCDBF5C
:1000400011E0A0E0B1E0EEECF7E002C005900D9207
:10005000AE33B107D9F721E0AEE3B1E001C01D92A4
:10006000A03AB207E1F70DD2B0C34AC10F931F9374
:10007000072F182F292F33270093C5006093C40042
:10008000E1ECF0E088E1808386E08093C20080812B
:10009000886980831F910F91089590913F019F5F20
:1000A0009F70209140019217E1F3E92FF0E0EF5BA0
:1000B000FE4F808390933F018091C10080628093C6
:1000C000C1000895CF93DF93EC018991882311F04B
:1000D000E4DFFBCFDF91CF910895CF93DF93CDB7CE
:1000E000DEB761970FB6F894DEBF0FBECDBFAB0190
:1000F000BE016F5F7F4F2CD3CE010196E3DF619687
:100100000FB6F894DEBF0FBECDBFDF91CF9108953B
:100110001F920F920FB60F9211248F939F93EF931C
:10012000FF9390913F0180914001981779F0809161
:1001300040018F5F8F7080934001E0914001F0E0BB
:10014000EF5BFE4F80818093C60005C08091C100A7
:100150008F7D8093C100FF91EF919F918F910F90C0
:100160000FBE0F901F9018959091510180915201F0
:10017000981769F0809152018F5F8F7180935201BF
:10018000E0915201F0E0ED5AFE4F8081089580E049
:1001900008951F920F920FB60F9211248F939F9381
:1001A000EF93FF938091C600E0915101EF5FEF71F3
:1001B00090915201E91731F0E0935101F0E0ED5ACE
:1001C000FE4F8083FF91EF919F918F910F900FBE13
:1001D0000F901F901895BC0180E29EE4A5D2862F57
:1001E000603138F07727CB01409797FD01969595C0
:1001F00087958093B800089584EA8093BC0080912D
:10020000BC0087FFFCCF089584E98093BC008091F7
:10021000BC0084FFFCCF08958093BB0084E88093EA
:10022000BC008091BC0087FFFCCF089520E4829F32
:10023000C001112484688093BC008091BC0087FFBA
:10024000FCCF8091BB000895EF92FF921F93CF9354
:10025000DF9300D000D0CDB7DEB7142F2B833C83C3
:100260006A838983C9DF8981D7DF6A81862FD4DFDA
:100270002B81E22E3C81F32E120F1E1529F0F7017F
:1002800081917F01C9DFF9CF0F900F900F900F90F0
:10029000DF91CF911F91FF90EF90B6CFEF92FF9239
:1002A0001F93CF93DF9300D01F92CDB7DEB7F82E08
:1002B000142F2A833B8369839FDF8F2DADDF6981F4
:1002C000862FAADF99DF81E08F0DA6DF11502A81EA
:1002D000E22E3B81F32E1F3F51F081E0111101C04E
:1002E00080E0A4DFF70181937F011150F4CF0F90DC
:1002F0000F900F90DF91CF911F91FF90EF9084CFDF
:100300001F920F920FB60F9211240F900FBE0F90F5
:100310001F9018951F920F920FB60F9211248F9372
:100320009F93EF93FF93E0913E01F0E0809178007E
:1003300090917900EE0FFF1FED58FE4F918380835F
:1003400080913E018F5F80933E0180913E01853018
:1003500010F010923E01E0913E01F0E0E050FF4FBE
:10036000808180937C008DEE92E00197F1F700C0D0
:10037000000080917A00806480937A00FF91EF9171
:100380009F918F910F900FBE0F901F901895EAE7E5
:10039000F0E020813081276081E090E0032E01C0F1
:1003A000880F0A94EAF7282B20838081886880834D
:1003B00080E480937C00808180648083089587E25C
:1003C00084B917B880EE8AB90895CF93DF93C6E851
:1003D000D0E08FEF90E099838883A0E8B0E02C9183
:1003E00022602C93E1E8F0E02081286120832C91A9
:1003F000206A2C9320812360208399838883DF9156
:10040000CF91089520917B0130917C0181E02536C8
:10041000310508F080E0089520E030E080E041E020
:1004200050E0F901EE0FFF1FED58FE4F6081718122
:10043000643F714038F4BA01022E01C0660F0A947D
:10044000EAF7862B2F5F3F4F2430310551F708958F
:100450002B9904C081E080937D0102C010927D0140
:100460002C9904C081E080937E0102C010927E012D
:100470005C9904C081E080937F01089510927F0110
:1004800008959DDF64E170E080E090E0EFDD7FDFC4
:100490009CDF7894B7DF811113C085E091E012DE14
:1004A0002FE78AE196E0215080409040E1F700C0BC
:1004B00000008BE091E006DE80E191E003DEEACF10
:1004C00085E091E0FFDD83E0D0D084E690E090937A
:1004D00089008093880086E990E090938B00809358
:1004E0008A00F12C8BE091E0EDDD80E191E0EADD26
:1004F0006AE070E08F2D90E0F0DD8EE291E0E2DDC9
:100500008BDF62E070E090E0E8DD8EE291E0DADD22
:10051000C0E0D0E087E191E0D5DDFE01EE0FFF1FE6
:10052000ED58FE4F808191816AE070E0D6DD8EE269
:1005300091E0C8DD2196C430D10561F78FE191E0EB
:10054000C1DD80917B0190917C016AE070E0C5DDA6
:100550008AE291E0B7DD7CDF0DE711E0C0E0D0E09A
:1005600081E391E0AFDD6AE070E0CE01B6DD8DE1C0
:1005700091E0A8DDF80181918F0162E070E090E0E8
:10058000ACDD8EE291E09EDD2196C330D10541F7CE
:1005900039DF882311F02D9801C02D9A3DDF882383
:1005A00069F087E391E08EDD84E05FD010928900EE
:1005B0001092880010928B0010928A00D5DD803254
:1005C00011F484E052D0F394FFE72AE186E0F15081
:1005D00020408040E1F700C0000084CF80E8809395
:1005E00080018093810141E04093820198EC9093D7
:1005F00083018093840180938501109286019093FA
:100600008701809388018093890123E020938A01E8
:1006100090938B0180938C0180938D0132E0309315
:100620008E0190938F018093900120E4209391019B
:1006300040939201909393012093940180939501AC
:10064000409396019093970120939801809399018C
:1006500030939A0190939B0180939C0120939D017C
:1006600030939E0190939F010895813069F078F056
:10067000823029F05D98833079F45E9A02C05D9AE9
:100680005E985F9A289808955D985E9A02C05D9A78
:100690005E985F98289A08955D985D985D98089592
:1006A0002091880030918900281B390B37FF03C047
:1006B0003195219531092333310574F420918A0055
:1006C00030918B00261B370B37FF03C031952195E6
:1006D0003109233331054CF080918A0090918B00D1
:1006E00080918800909189000895880F991F9093B8
:1006F000890080938800660F771F70938B0060934A
:100700008A000895CF93DF9394E0899FE00111243C
:10071000C058DE4F698170E0888190E0C1DF8A8136
:10072000DF91CF91A2CF0895AA1BBB1B51E107C057
:10073000AA1FBB1FA617B70710F0A61BB70B881F71
:10074000991F5A95A9F780959095BC01CD01089500
:100750004532510518F4423008F004C0FB01108204
:10076000CB010895BB274A3031F4992322F4BDE22E
:10077000909581959F4F01C0BB27FB015527AA2764
:10078000880F991FAA1FA41710F0A41B839550511E
:10079000B9F7A05DAA3308F0A95DA193009779F796
:1007A000B111B1931192CB0100C0DC01FC01672FA4
:1007B00071917723E1F7329704C07C916D93708338
:0E07C0006291AE17BF07C8F30895F894FFCFFB
:1007CE00404142474668656C6C6F001B5B324A00C5
:1007DE001B5B303B30480054434352544E3A005357
:1007EE0057495443483A20202000202020200D0A4B
:0E07FE00005348415250004544474521000039
:00000001FF
