:1000000019C033C032C031C030C02FC02EC02DC087
:100010002CC02BC02AC029C028C027C026C025C09C
:1000200024C023C0B6C074C020C074C11EC01DC08F
:100030001CC01BC011241FBECFEFD4E0DEBFCDBF5C
:1000400011E0A0E0B1E0EAEBF5E002C005900D920E
:10005000AC32B107D9F721E0ACE2B1E001C01D92AA
:10006000AB36B207E1F7D4D1A6C24AC10F931F93B2
:10007000072F182F292F33270093C5006093C40042
:10008000E1ECF0E088E1808386E08093C20080812B
:10009000886980831F910F91089590912D019F5F32
:1000A0009F7020912E019217E1F3E92FF0E0E15DBE
:1000B000FE4F808390932D018091C10080628093D8
:1000C000C1000895CF93DF93EC018991882311F04B
:1000D000E4DFFBCFDF91CF910895CF93DF93CDB7CE
:1000E000DEB761970FB6F894DEBF0FBECDBFAB0190
:1000F000BE016F5F7F4F22D2CE010196E3DF619692
:100100000FB6F894DEBF0FBECDBFDF91CF9108953B
:100110001F920F920FB60F9211248F939F93EF931C
:10012000FF9390912D0180912E01981779F0809185
:100130002E018F5F8F7080932E01E0912E01F0E0F1
:10014000E15DFE4F80818093C60005C08091C100B3
:100150008F7D8093C100FF91EF919F918F910F90C0
:100160000FBE0F901F90189590913F018091400114
:10017000981769F0809140018F5F8F7180934001E3
:10018000E0914001F0E0EF5BFE4F8081089580E058
:1001900008951F920F920FB60F9211248F939F9381
:1001A000EF93FF938091C600E0913F01EF5FEF7105
:1001B00090914001E91731F0E0933F01F0E0EF5BEF
:1001C000FE4F8083FF91EF919F918F910F900FBE13
:1001D0000F901F901895BC0180E29EE49BD1862F62
:1001E000603138F07727CB01409797FD01969595C0
:1001F00087958093B800089584EA8093BC0080912D
:10020000BC0087FFFCCF089584E98093BC008091F7
:10021000BC0084FFFCCF08958093BB0084E88093EA
:10022000BC008091BC0087FFFCCF089520E4829F32
:10023000C001112484688093BC008091BC0087FFBA
:10024000FCCF8091BB000895EF92FF921F93CF9354
:10025000DF9300D000D0CDB7DEB7142F2B833C83C3
:100260006A838983C9DF8981D7DF6A81862FD4DFDA
:100270002B81E22E3C81F32E120F1E1529F0F7017F
:1002800081917F01C9DFF9CF0F900F900F900F90F0
:10029000DF91CF911F91FF90EF90B6CFEF92FF9239
:1002A0001F93CF93DF9300D01F92CDB7DEB7F82E08
:1002B000142F2A833B8369839FDF8F2DADDF6981F4
:1002C000862FAADF99DF81E08F0DA6DF11502A81EA
:1002D000E22E3B81F32E1F3F51F081E0111101C04E
:1002E00080E0A4DFF70181937F011150F4CF0F90DC
:1002F0000F900F90DF91CF911F91FF90EF9084CFDF
:100300001F920F920FB60F9211240F900FBE0F90F5
:100310001F9018951F920F920FB60F9211248F9372
:100320009F93EF93FF93E0912C01F0E08091780090
:1003300090917900EE0FFF1FEF59FE4F918380835C
:1003400080912C018F5F80932C0180912C0185304E
:1003500010F010922C01E0912C01F0E0E050FF4FE2
:10036000808180937C008DEE92E00197F1F700C0D0
:10037000000080917A00806480937A00FF91EF9171
:100380009F918F910F900FBE0F901F901895EAE7E5
:10039000F0E020813081276081E090E0032E01C0F1
:1003A000880F0A94EAF7282B20838081886880834D
:1003B00080E480937C00089587E284B917B880EECA
:1003C0008AB908952091690130916A0181E025364A
:1003D000310508F080E0089520E030E080E041E061
:1003E00050E0F901EE0FFF1FEF59FE4F6081718160
:1003F000643F714038F4BA01022E01C0660F0A94BE
:10040000EAF7862B2F5F3F4F2430310551F70895CF
:10041000D3DF64E170E080E090E028DEB8DF78941C
:100420005D985E9A80917A00806480937A0083B1AF
:1004300083B189B1C7DF882311F02D9801C02D9AAF
:100440001F5F2FE38DE093E0215080409040E1F763
:1004500000C0000085E091E035DE8AE091E032DE08
:100460006AE070E0812F90E038DE88E291E02ADED9
:10047000B3DF62E070E090E030DE88E291E022DEFF
:10048000C0E0D0E081E191E01DDEFE01EE0FFF1F34
:10049000EF59FE4F808191816AE070E01EDE88E2B4
:1004A00091E010DE2196C430D10561F789E191E039
:1004B00009DE8091690190916A016AE070E00DDEC9
:1004C00084E291E0FFDDB6CF0895813049F028F055
:1004D000823059F0833061F008952D9A5E9802C001
:1004E0002D985E9A5D985E9A08952D9A5E9802C046
:1004F0002D985E9A5D9A5E980895880F991F909343
:10050000890080938800660F771F70938B0060933B
:100510008A000895AA1BBB1B51E107C0AA1FBB1F7D
:10052000A617B70710F0A61BB70B881F991F5A957F
:10053000A9F780959095BC01CD01089545325105EC
:1005400018F4423008F004C0FB011082CB0108957A
:10055000BB274A3031F4992322F4BDE2909581956E
:100560009F4F01C0BB27FB015527AA27880F991F62
:10057000AA1FA41710F0A41B83955051B9F7A05DD2
:10058000AA3308F0A95DA193009779F7B111B1934F
:100590001192CB0100C0DC01FC01672F7191772320
:1005A000E1F7329704C07C916D9370836291AE172E
:0A05B000BF07C8F30895F894FFCFC9
:1005BA0040414247461B5B324A001B5B303B304896
:1005CA000054434352544E3A005357495443483A0D
:0C05DA0020202000202020200D0A00001E
:00000001FF
